{
  "contractName": "Marketplace",
  "abi": [
    {
      "inputs": [],
      "payable": false,
      "stateMutability": "nonpayable",
      "type": "constructor"
    },
    {
      "anonymous": false,
      "inputs": [
        {
          "indexed": false,
          "internalType": "uint256",
          "name": "id",
          "type": "uint256"
        },
        {
          "indexed": false,
          "internalType": "string",
          "name": "name",
          "type": "string"
        },
        {
          "indexed": false,
          "internalType": "string",
          "name": "image",
          "type": "string"
        },
        {
          "indexed": false,
          "internalType": "uint256",
          "name": "price",
          "type": "uint256"
        },
        {
          "indexed": false,
          "internalType": "address payable",
          "name": "owner",
          "type": "address"
        },
        {
          "indexed": false,
          "internalType": "bool",
          "name": "purchased",
          "type": "bool"
        }
      ],
      "name": "productCreated",
      "type": "event"
    },
    {
      "anonymous": false,
      "inputs": [
        {
          "indexed": false,
          "internalType": "uint256",
          "name": "id",
          "type": "uint256"
        },
        {
          "indexed": false,
          "internalType": "string",
          "name": "name",
          "type": "string"
        },
        {
          "indexed": false,
          "internalType": "string",
          "name": "image",
          "type": "string"
        },
        {
          "indexed": false,
          "internalType": "uint256",
          "name": "price",
          "type": "uint256"
        },
        {
          "indexed": false,
          "internalType": "address payable",
          "name": "owner",
          "type": "address"
        },
        {
          "indexed": false,
          "internalType": "bool",
          "name": "purchased",
          "type": "bool"
        }
      ],
      "name": "productPurchased",
      "type": "event"
    },
    {
      "constant": true,
      "inputs": [],
      "name": "name",
      "outputs": [
        {
          "internalType": "string",
          "name": "",
          "type": "string"
        }
      ],
      "payable": false,
      "stateMutability": "view",
      "type": "function"
    },
    {
      "constant": true,
      "inputs": [],
      "name": "productCount",
      "outputs": [
        {
          "internalType": "uint256",
          "name": "",
          "type": "uint256"
        }
      ],
      "payable": false,
      "stateMutability": "view",
      "type": "function"
    },
    {
      "constant": true,
      "inputs": [
        {
          "internalType": "uint256",
          "name": "",
          "type": "uint256"
        }
      ],
      "name": "products",
      "outputs": [
        {
          "internalType": "uint256",
          "name": "id",
          "type": "uint256"
        },
        {
          "internalType": "string",
          "name": "name",
          "type": "string"
        },
        {
          "internalType": "string",
          "name": "image",
          "type": "string"
        },
        {
          "internalType": "uint256",
          "name": "price",
          "type": "uint256"
        },
        {
          "internalType": "address payable",
          "name": "owner",
          "type": "address"
        },
        {
          "internalType": "bool",
          "name": "purchased",
          "type": "bool"
        }
      ],
      "payable": false,
      "stateMutability": "view",
      "type": "function"
    },
    {
      "constant": false,
      "inputs": [
        {
          "internalType": "string",
          "name": "_name",
          "type": "string"
        },
        {
          "internalType": "uint256",
          "name": "_price",
          "type": "uint256"
        },
        {
          "internalType": "string",
          "name": "_image",
          "type": "string"
        }
      ],
      "name": "createProduct",
      "outputs": [],
      "payable": false,
      "stateMutability": "nonpayable",
      "type": "function"
    },
    {
      "constant": false,
      "inputs": [
        {
          "internalType": "uint256",
          "name": "_id",
          "type": "uint256"
        }
      ],
      "name": "purchaseProduct",
      "outputs": [],
      "payable": true,
      "stateMutability": "payable",
      "type": "function"
    }
  ],
  "bytecode": "0x608060405234801561001057600080fd5b506040805180820190915260108082526f42657468204d61726b6574706c61636560801b60209092019182526100489160009161004e565b506100e9565b828054600181600116156101000203166002900490600052602060002090601f016020900481019282601f1061008f57805160ff19168380011785556100bc565b828001600101855582156100bc579182015b828111156100bc5782518255916020019190600101906100a1565b506100c89291506100cc565b5090565b6100e691905b808211156100c857600081556001016100d2565b90565b610c31806100f86000396000f3fe60806040526004361061004a5760003560e01c806306fdde031461004f57806338e76a03146100d95780637acc0b20146100f8578063e0f6ef8714610232578063ff38ec0f14610259575b600080fd5b34801561005b57600080fd5b5061006461039b565b6040805160208082528351818301528351919283929083019185019080838360005b8381101561009e578181015183820152602001610086565b50505050905090810190601f1680156100cb5780820380516001836020036101000a031916815260200191505b509250505060405180910390f35b6100f6600480360360208110156100ef57600080fd5b5035610429565b005b34801561010457600080fd5b506101226004803603602081101561011b57600080fd5b503561083e565b604051808781526020018060200180602001868152602001856001600160a01b03166001600160a01b0316815260200184151515158152602001838103835288818151815260200191508051906020019080838360005b83811015610191578181015183820152602001610179565b50505050905090810190601f1680156101be5780820380516001836020036101000a031916815260200191505b50838103825287518152875160209182019189019080838360005b838110156101f15781810151838201526020016101d9565b50505050905090810190601f16801561021e5780820380516001836020036101000a031916815260200191505b509850505050505050505060405180910390f35b34801561023e57600080fd5b50610247610996565b60408051918252519081900360200190f35b34801561026557600080fd5b506100f66004803603606081101561027c57600080fd5b81019060208101813564010000000081111561029757600080fd5b8201836020820111156102a957600080fd5b803590602001918460018302840111640100000000831117156102cb57600080fd5b91908080601f0160208091040260200160405190810160405280939291908181526020018383808284376000920191909152509295843595909490935060408101925060200135905064010000000081111561032657600080fd5b82018360208201111561033857600080fd5b8035906020019184600183028401116401000000008311171561035a57600080fd5b91908080601f01602080910402602001604051908101604052809392919081815260200183838082843760009201919091525092955061099c945050505050565b6000805460408051602060026001851615610100026000190190941693909304601f810184900484028201840190925281815292918301828280156104215780601f106103f657610100808354040283529160200191610421565b820191906000526020600020905b81548152906001019060200180831161040457829003601f168201915b505050505081565b610431610b20565b600260008381526020019081526020016000206040518060c001604052908160008201548152602001600182018054600181600116156101000203166002900480601f0160208091040260200160405190810160405280929190818152602001828054600181600116156101000203166002900480156104f25780601f106104c7576101008083540402835291602001916104f2565b820191906000526020600020905b8154815290600101906020018083116104d557829003601f168201915b5050509183525050600282810180546040805160206001841615610100026000190190931694909404601f810183900483028501830190915280845293810193908301828280156105845780601f1061055957610100808354040283529160200191610584565b820191906000526020600020905b81548152906001019060200180831161056757829003601f168201915b5050509183525050600382015460208201526004909101546001600160a01b0381166040830152600160a01b900460ff1615156060909101526080810151815191925090158015906105d95750600154825111155b6105e257600080fd5b8160a00151156105f157600080fd5b6001600160a01b03811633141561060757600080fd5b816060015134101561061857600080fd5b336080830152600160a0830181905260008481526002602090815260409091208451815581850151805186949293610654938501920190610b61565b5060408201518051610670916002840191602090910190610b61565b506060820151600382015560808201516004909101805460a0909301511515600160a01b0260ff60a01b196001600160a01b039384166001600160a01b0319909516949094179390931692909217909155604051908216903480156108fc02916000818181858888f193505050501580156106ef573d6000803e3d6000fd5b507f72cfbcebf6343a215617f834afc5d9e1601cfbc69fd1d263727a70ef3c6ba53e60015483602001518460400151856060015186608001516001604051808781526020018060200180602001868152602001856001600160a01b03166001600160a01b0316815260200184151515158152602001838103835288818151815260200191508051906020019080838360005b83811015610799578181015183820152602001610781565b50505050905090810190601f1680156107c65780820380516001836020036101000a031916815260200191505b50838103825287518152875160209182019189019080838360005b838110156107f95781810151838201526020016107e1565b50505050905090810190601f1680156108265780820380516001836020036101000a031916815260200191505b509850505050505050505060405180910390a1505050565b60026020818152600092835260409283902080546001808301805487519281161561010002600019011695909504601f81018590048502820185019096528581529094919390929091908301828280156108d95780601f106108ae576101008083540402835291602001916108d9565b820191906000526020600020905b8154815290600101906020018083116108bc57829003601f168201915b50505060028085018054604080516020601f600019610100600187161502019094169590950492830185900485028101850190915281815295969594509092509083018282801561096b5780601f106109405761010080835404028352916020019161096b565b820191906000526020600020905b81548152906001019060200180831161094e57829003601f168201915b5050505060038301546004909301549192916001600160a01b0381169150600160a01b900460ff1686565b60015481565b60008351116109aa57600080fd5b60008151116109b857600080fd5b600082116109c557600080fd5b6001805481018082556040805160c081018252828152602080820188815282840187905260608301889052336080840152600060a084018190529485526002825292909320815181559151805191949293610a2593850192910190610b61565b5060408201518051610a41916002840191602090910190610b61565b5060608281015160038301556080808401516004909301805460a0958601511515600160a01b0260ff60a01b196001600160a01b039096166001600160a01b03199092169190911794909416939093179092556001546040805182815292830187905233938301849052600094830185905260c060208085018281528a519286019290925289517fe448e56cefc21b7478604ed069e303a444a2ac143efe5e1ae9fbffa2bf3084539794968b968a968c96929590949193909284019160e0850191908a0190808383898315610799578181015183820152602001610781565b6040518060c001604052806000815260200160608152602001606081526020016000815260200160006001600160a01b031681526020016000151581525090565b828054600181600116156101000203166002900490600052602060002090601f016020900481019282601f10610ba257805160ff1916838001178555610bcf565b82800160010185558215610bcf579182015b82811115610bcf578251825591602001919060010190610bb4565b50610bdb929150610bdf565b5090565b610bf991905b80821115610bdb5760008155600101610be5565b9056fea265627a7a72315820287cfd00e46e0fe0686082c85837d3c7026d627bbe466388dff93c8ff6642f9664736f6c63430005100032",
  "source": "// SPDX-License-Identifier: MIT\r\npragma solidity ^0.5.16;\r\n\r\ncontract Marketplace {\r\n    string public name;\r\n    uint public productCount;\r\n\r\n    constructor() public {\r\n        name = \"Beth Marketplace\";\r\n    }\r\n    struct Product {\r\n        uint id;\r\n        string name;\r\n        string image;\r\n        uint price;\r\n        address payable owner;\r\n        bool purchased;\r\n    }\r\n    //To Update the owners account we need to add the attribute 'payable'\r\n    event productPurchased(\r\n        uint id,\r\n        string name,\r\n        string image,\r\n        uint price,\r\n        address payable  owner, \r\n        bool purchased\r\n\r\n    );\r\n    event productCreated(\r\n        uint id,\r\n        string name,\r\n        string image,\r\n        uint price,\r\n        address payable owner, \r\n        bool purchased\r\n\r\n    );\r\n    mapping(uint => Product) public products;\r\n\r\n    function createProduct(string memory _name, uint _price, string memory _image) public {\r\n        //Requiements\r\n        require(bytes(_name).length > 0); //Must have a name\r\n        require(bytes(_image).length > 0); //Must have an image\r\n        require(_price > 0); //Must have a valid price\r\n        productCount++;\r\n        products[productCount] = Product(productCount,_name,_image,_price,msg.sender,false);\r\n        emit productCreated(productCount,_name,_image,_price,msg.sender,false);\r\n           \r\n    }\r\n\r\n    function purchaseProduct(uint _id) payable public {\r\n      Product memory _product = products[_id]; //Fetch the Product\r\n      address payable _seller = _product.owner; //Fetch the owner\r\n      require(_product.id > 0 && _product.id <= productCount); \r\n      require(!_product.purchased); //Ensure the product has not been bought\r\n      require(_seller != msg.sender); //Ensure the buyer is not the seller\r\n      require(msg.value >= _product.price); //Ensure there is enough ether to perform transaction\r\n      _product.owner = msg.sender; //Transfer Ownership to buyer\r\n      _product.purchased = true; //Mark as Purchased\r\n      products[_id] = _product;  //Update the product\r\n      address(_seller).transfer(msg.value); //Pay the seller\r\n      emit productPurchased(productCount,_product.name,_product.image,_product.price,_product.owner, true);\r\n\r\n         }\r\n} ",
  "sourcePath": "C:\\Users\\Admin\\Desktop\\Blockchain\\contracts\\Marketplace.sol",
  "compiler": {
    "name": "solc",
    "version": "0.5.16+commit.9c3226ce.Emscripten.clang"
  },
  "schemaVersion": "3.4.7",
  "updatedAt": "2022-08-14T00:28:06.485Z",
  "devdoc": {
    "methods": {}
  },
  "userdoc": {
    "methods": {}
  }
}