{
  "contractName": "Transactions",
  "abi": [
    {
      "anonymous": false,
      "inputs": [
        {
          "indexed": false,
          "internalType": "address",
          "name": "from",
          "type": "address"
        },
        {
          "indexed": false,
          "internalType": "address",
          "name": "receiver",
          "type": "address"
        },
        {
          "indexed": false,
          "internalType": "uint256",
          "name": "amount",
          "type": "uint256"
        },
        {
          "indexed": false,
          "internalType": "string",
          "name": "message",
          "type": "string"
        },
        {
          "indexed": false,
          "internalType": "uint256",
          "name": "timestamp",
          "type": "uint256"
        }
      ],
      "name": "Transfer",
      "type": "event"
    },
    {
      "constant": true,
      "inputs": [],
      "name": "transactionCounter",
      "outputs": [
        {
          "internalType": "uint256",
          "name": "",
          "type": "uint256"
        }
      ],
      "payable": false,
      "stateMutability": "view",
      "type": "function"
    },
    {
      "constant": false,
      "inputs": [
        {
          "internalType": "address payable",
          "name": "receiver",
          "type": "address"
        },
        {
          "internalType": "uint256",
          "name": "amount",
          "type": "uint256"
        },
        {
          "internalType": "string",
          "name": "message",
          "type": "string"
        }
      ],
      "name": "addToBlockchain",
      "outputs": [],
      "payable": true,
      "stateMutability": "payable",
      "type": "function"
    },
    {
      "constant": true,
      "inputs": [],
      "name": "getTransactions",
      "outputs": [
        {
          "components": [
            {
              "internalType": "address",
              "name": "sender",
              "type": "address"
            },
            {
              "internalType": "address",
              "name": "receiver",
              "type": "address"
            },
            {
              "internalType": "uint256",
              "name": "amount",
              "type": "uint256"
            },
            {
              "internalType": "string",
              "name": "message",
              "type": "string"
            },
            {
              "internalType": "uint256",
              "name": "timestamp",
              "type": "uint256"
            }
          ],
          "internalType": "struct Transactions.Transaction[]",
          "name": "",
          "type": "tuple[]"
        }
      ],
      "payable": false,
      "stateMutability": "view",
      "type": "function"
    },
    {
      "constant": true,
      "inputs": [],
      "name": "getTransactionsCount",
      "outputs": [
        {
          "internalType": "uint256",
          "name": "",
          "type": "uint256"
        }
      ],
      "payable": false,
      "stateMutability": "view",
      "type": "function"
    }
  ],
  "bytecode": "0x608060405234801561001057600080fd5b506107b0806100206000396000f3fe60806040526004361061003f5760003560e01c806314e887e814610044578063578cb8f91461006f57806383920e9014610084578063eb12da4a146100a6575b600080fd5b34801561005057600080fd5b506100596100bb565b6040516100669190610675565b60405180910390f35b34801561007b57600080fd5b506100596100c1565b34801561009057600080fd5b506100996100c8565b6040516100669190610664565b6100b96100b4366004610463565b6101ef565b005b60005481565b6000545b90565b60606001805480602002602001604051908101604052809291908181526020016000905b828210156101e65760008481526020908190206040805160a0810182526005860290920180546001600160a01b039081168452600180830154909116848601526002808301548585015260038301805485516101009482161594909402600019011691909104601f810187900487028301870190945283825293949193606086019391929091908301828280156101c45780601f10610199576101008083540402835291602001916101c4565b820191906000526020600020905b8154815290600101906020018083116101a757829003601f168201915b50505050508152602001600482015481525050815260200190600101906100ec565b50505050905090565b60008054600190810182556040805160a0810182523381526001600160a01b03878116602080840191825293830188815260608401888152426080860152865480880180895597909852845160059098027fb10e2d527612073b26eecdfd717e6a320cf44b4afac2b0732d9fcbe2b7fa0cf6810180549986166001600160a01b03199a8b1617815593517fb10e2d527612073b26eecdfd717e6a320cf44b4afac2b0732d9fcbe2b7fa0cf78201805491909616991698909817909355517fb10e2d527612073b26eecdfd717e6a320cf44b4afac2b0732d9fcbe2b7fa0cf887015590518051949592949193610309937fb10e2d527612073b26eecdfd717e6a320cf44b4afac2b0732d9fcbe2b7fa0cf9019291019061035b565b50608082015181600401555050507fc4b32d7ff75a51e487f3cbb5d3202f2efecca1f4c2b987e0039c1d3220b48a83338484844260405161034e959493929190610611565b60405180910390a1505050565b828054600181600116156101000203166002900490600052602060002090601f016020900481019282601f1061039c57805160ff19168380011785556103c9565b828001600101855582156103c9579182015b828111156103c95782518255916020019190600101906103ae565b506103d59291506103d9565b5090565b6100c591905b808211156103d557600081556001016103df565b80356103fe8161074d565b92915050565b600082601f83011261041557600080fd5b8135610428610423826106aa565b610683565b9150808252602083016020830185838301111561044457600080fd5b61044f838284610707565b50505092915050565b80356103fe81610764565b60008060006060848603121561047857600080fd5b600061048486866103f3565b935050602061049586828701610458565b925050604084013567ffffffffffffffff8111156104b257600080fd5b6104be86828701610404565b9150509250925092565b60006104d48383610599565b9392505050565b6104e4816106f6565b82525050565b6104e4816106e5565b60006104fe826106d8565b61050881856106dc565b93508360208202850161051a856106d2565b8060005b85811015610554578484038952815161053785826104c8565b9450610542836106d2565b60209a909a019992505060010161051e565b5091979650505050505050565b600061056c826106d8565b61057681856106dc565b9350610586818560208601610713565b61058f81610743565b9093019392505050565b805160009060a08401906105ad85826104ea565b5060208301516105c060208601826104ea565b5060408301516105d36040860182610608565b50606083015184820360608601526105eb8282610561565b91505060808301516106006080860182610608565b509392505050565b6104e4816100c5565b60a0810161061f82886104db565b61062c60208301876104db565b6106396040830186610608565b818103606083015261064b8185610561565b905061065a6080830184610608565b9695505050505050565b602080825281016104d481846104f3565b602081016103fe8284610608565b60405181810167ffffffffffffffff811182821017156106a257600080fd5b604052919050565b600067ffffffffffffffff8211156106c157600080fd5b506020601f91909101601f19160190565b60200190565b5190565b90815260200190565b60006001600160a01b0382166103fe565b60006103fe8260006103fe826106e5565b82818337506000910152565b60005b8381101561072e578181015183820152602001610716565b8381111561073d576000848401525b50505050565b601f01601f191690565b610756816106e5565b811461076157600080fd5b50565b610756816100c556fea365627a7a723158201bda1ab1f23c6d3a47d58fef919e1178c822bc8844d3319285787084968840486c6578706572696d656e74616cf564736f6c63430005100040",
  "source": "// SPDX-License-Identifier: MIT\r\npragma experimental ABIEncoderV2;\r\npragma solidity >=0.4.17 <0.9.0;\r\n\r\ncontract Transactions {\r\n    uint256  public transactionCounter;\r\n    event Transfer(address from, address receiver, uint amount, string message, uint256 timestamp);\r\n\r\n    struct Transaction {\r\n        address sender;\r\n        address receiver;\r\n        uint amount;\r\n        string message;\r\n        uint256 timestamp;\r\n    }\r\n\r\n    Transaction[] transactions;\r\n\r\n    function addToBlockchain(address payable receiver, uint amount, string memory message) payable public {\r\n    // require(amount > 0);\r\n    // require(bytes(message).length > 0);\r\n    transactionCounter++;\r\n    transactions.push(Transaction(msg.sender, receiver,amount,message, block.timestamp));\r\n    // address(receiver).transfer(amount);\r\n    emit Transfer(msg.sender, receiver,amount,message, block.timestamp);\r\n    }\r\n\r\n    function getTransactions() public view returns (Transaction[] memory){\r\n        return transactions;\r\n    }\r\n    function getTransactionsCount() public view returns (uint256){\r\n      return transactionCounter;\r\n    }\r\n}",
  "sourcePath": "C:\\Users\\Admin\\Desktop\\Blockchain\\contracts\\Transactions.sol",
  "compiler": {
    "name": "solc",
    "version": "0.5.16+commit.9c3226ce.Emscripten.clang"
  },
  "schemaVersion": "3.4.7",
  "updatedAt": "2022-08-14T00:28:23.267Z",
  "networkType": "ethereum",
  "devdoc": {
    "methods": {}
  },
  "userdoc": {
    "methods": {}
  }
}